{
    "_format": "hh-sol-artifact-1",
    "contractName": "MurmurNFT",
    "sourceName": "contracts/MurmurNFT.sol",
    "abi": [
        {
            "inputs": [],
            "stateMutability": "nonpayable",
            "type": "constructor"
        },
        {
            "inputs": [
                {
                    "internalType": "address",
                    "name": "target",
                    "type": "address"
                }
            ],
            "name": "AddressEmptyCode",
            "type": "error"
        },
        {
            "inputs": [
                {
                    "internalType": "uint256",
                    "name": "tokenId",
                    "type": "uint256"
                }
            ],
            "name": "DisabledToken",
            "type": "error"
        },
        {
            "inputs": [
                {
                    "internalType": "address",
                    "name": "implementation",
                    "type": "address"
                }
            ],
            "name": "ERC1967InvalidImplementation",
            "type": "error"
        },
        {
            "inputs": [],
            "name": "ERC1967NonPayable",
            "type": "error"
        },
        {
            "inputs": [
                {
                    "internalType": "address",
                    "name": "sender",
                    "type": "address"
                },
                {
                    "internalType": "uint256",
                    "name": "tokenId",
                    "type": "uint256"
                },
                {
                    "internalType": "address",
                    "name": "owner",
                    "type": "address"
                }
            ],
            "name": "ERC721IncorrectOwner",
            "type": "error"
        },
        {
            "inputs": [
                {
                    "internalType": "address",
                    "name": "operator",
                    "type": "address"
                },
                {
                    "internalType": "uint256",
                    "name": "tokenId",
                    "type": "uint256"
                }
            ],
            "name": "ERC721InsufficientApproval",
            "type": "error"
        },
        {
            "inputs": [
                {
                    "internalType": "address",
                    "name": "approver",
                    "type": "address"
                }
            ],
            "name": "ERC721InvalidApprover",
            "type": "error"
        },
        {
            "inputs": [
                {
                    "internalType": "address",
                    "name": "operator",
                    "type": "address"
                }
            ],
            "name": "ERC721InvalidOperator",
            "type": "error"
        },
        {
            "inputs": [
                {
                    "internalType": "address",
                    "name": "owner",
                    "type": "address"
                }
            ],
            "name": "ERC721InvalidOwner",
            "type": "error"
        },
        {
            "inputs": [
                {
                    "internalType": "address",
                    "name": "receiver",
                    "type": "address"
                }
            ],
            "name": "ERC721InvalidReceiver",
            "type": "error"
        },
        {
            "inputs": [
                {
                    "internalType": "address",
                    "name": "sender",
                    "type": "address"
                }
            ],
            "name": "ERC721InvalidSender",
            "type": "error"
        },
        {
            "inputs": [
                {
                    "internalType": "uint256",
                    "name": "expectedTokenId",
                    "type": "uint256"
                }
            ],
            "name": "ERC721InvalidTokenID",
            "type": "error"
        },
        {
            "inputs": [
                {
                    "internalType": "uint256",
                    "name": "tokenId",
                    "type": "uint256"
                }
            ],
            "name": "ERC721NonexistentToken",
            "type": "error"
        },
        {
            "inputs": [],
            "name": "EmptyTokenIssuanceCurve",
            "type": "error"
        },
        {
            "inputs": [],
            "name": "EnforcedPause",
            "type": "error"
        },
        {
            "inputs": [
                {
                    "internalType": "address",
                    "name": "executioner",
                    "type": "address"
                }
            ],
            "name": "ExecutionerOwnableInvalidExecutioner",
            "type": "error"
        },
        {
            "inputs": [
                {
                    "internalType": "address",
                    "name": "account",
                    "type": "address"
                }
            ],
            "name": "ExecutionerOwnableUnauthorizedAccount",
            "type": "error"
        },
        {
            "inputs": [
                {
                    "internalType": "bytes32",
                    "name": "messageIdentifier",
                    "type": "bytes32"
                }
            ],
            "name": "ExistingMessageIdentifier",
            "type": "error"
        },
        {
            "inputs": [],
            "name": "ExpectedPause",
            "type": "error"
        },
        {
            "inputs": [],
            "name": "FailedInnerCall",
            "type": "error"
        },
        {
            "inputs": [
                {
                    "internalType": "uint256",
                    "name": "element",
                    "type": "uint256"
                }
            ],
            "name": "IntArrayElementNotFound",
            "type": "error"
        },
        {
            "inputs": [],
            "name": "InvalidInitialization",
            "type": "error"
        },
        {
            "inputs": [
                {
                    "components": [
                        {
                            "internalType": "uint8",
                            "name": "value",
                            "type": "uint8"
                        },
                        {
                            "internalType": "uint256",
                            "name": "end",
                            "type": "uint256"
                        }
                    ],
                    "internalType": "struct TokenIssuanceCurve.TokenIssuanceCurveRangeSettings",
                    "name": "range",
                    "type": "tuple"
                }
            ],
            "name": "InvalidTokenIssuanceCurveDomainOrDefinition",
            "type": "error"
        },
        {
            "inputs": [],
            "name": "NFTNotFound",
            "type": "error"
        },
        {
            "inputs": [
                {
                    "internalType": "bytes32",
                    "name": "messageIdentifier",
                    "type": "bytes32"
                }
            ],
            "name": "NonExistentMessageIdentifier",
            "type": "error"
        },
        {
            "inputs": [],
            "name": "NotInitializing",
            "type": "error"
        },
        {
            "inputs": [],
            "name": "OnlyTriggerContractCanCall",
            "type": "error"
        },
        {
            "inputs": [
                {
                    "internalType": "address",
                    "name": "owner",
                    "type": "address"
                }
            ],
            "name": "OwnableInvalidOwner",
            "type": "error"
        },
        {
            "inputs": [
                {
                    "internalType": "address",
                    "name": "account",
                    "type": "address"
                }
            ],
            "name": "OwnableUnauthorizedAccount",
            "type": "error"
        },
        {
            "inputs": [
                {
                    "internalType": "uint256",
                    "name": "value",
                    "type": "uint256"
                },
                {
                    "internalType": "uint256",
                    "name": "length",
                    "type": "uint256"
                }
            ],
            "name": "StringsInsufficientHexLength",
            "type": "error"
        },
        {
            "inputs": [
                {
                    "components": [
                        {
                            "internalType": "uint8",
                            "name": "value",
                            "type": "uint8"
                        },
                        {
                            "internalType": "uint256",
                            "name": "end",
                            "type": "uint256"
                        }
                    ],
                    "internalType": "struct TokenIssuanceCurve.TokenIssuanceCurveRangeSettings",
                    "name": "currentRange",
                    "type": "tuple"
                },
                {
                    "components": [
                        {
                            "internalType": "uint8",
                            "name": "value",
                            "type": "uint8"
                        },
                        {
                            "internalType": "uint256",
                            "name": "end",
                            "type": "uint256"
                        }
                    ],
                    "internalType": "struct TokenIssuanceCurve.TokenIssuanceCurveRangeSettings",
                    "name": "nextRange",
                    "type": "tuple"
                }
            ],
            "name": "TokenIssuanceCurveDescendingDomain",
            "type": "error"
        },
        {
            "inputs": [],
            "name": "UUPSUnauthorizedCallContext",
            "type": "error"
        },
        {
            "inputs": [
                {
                    "internalType": "bytes32",
                    "name": "slot",
                    "type": "bytes32"
                }
            ],
            "name": "UUPSUnsupportedProxiableUUID",
            "type": "error"
        },
        {
            "inputs": [],
            "name": "ZeroAddressForbidden",
            "type": "error"
        },
        {
            "inputs": [],
            "name": "ZeroMessageIdentifierForbidden",
            "type": "error"
        },
        {
            "anonymous": false,
            "inputs": [
                {
                    "indexed": true,
                    "internalType": "address",
                    "name": "owner",
                    "type": "address"
                },
                {
                    "indexed": true,
                    "internalType": "address",
                    "name": "approved",
                    "type": "address"
                },
                {
                    "indexed": true,
                    "internalType": "uint256",
                    "name": "tokenId",
                    "type": "uint256"
                }
            ],
            "name": "Approval",
            "type": "event"
        },
        {
            "anonymous": false,
            "inputs": [
                {
                    "indexed": true,
                    "internalType": "address",
                    "name": "owner",
                    "type": "address"
                },
                {
                    "indexed": true,
                    "internalType": "address",
                    "name": "operator",
                    "type": "address"
                },
                {
                    "indexed": false,
                    "internalType": "bool",
                    "name": "approved",
                    "type": "bool"
                }
            ],
            "name": "ApprovalForAll",
            "type": "event"
        },
        {
            "anonymous": false,
            "inputs": [
                {
                    "indexed": true,
                    "internalType": "address",
                    "name": "previousExecutioner",
                    "type": "address"
                },
                {
                    "indexed": true,
                    "internalType": "address",
                    "name": "newExecutioner",
                    "type": "address"
                }
            ],
            "name": "ExecutionerOwnershipTransferred",
            "type": "event"
        },
        {
            "anonymous": false,
            "inputs": [
                {
                    "indexed": false,
                    "internalType": "uint64",
                    "name": "version",
                    "type": "uint64"
                }
            ],
            "name": "Initialized",
            "type": "event"
        },
        {
            "anonymous": false,
            "inputs": [
                {
                    "indexed": true,
                    "internalType": "address",
                    "name": "previousOwner",
                    "type": "address"
                },
                {
                    "indexed": true,
                    "internalType": "address",
                    "name": "newOwner",
                    "type": "address"
                }
            ],
            "name": "OwnershipTransferred",
            "type": "event"
        },
        {
            "anonymous": false,
            "inputs": [
                {
                    "indexed": false,
                    "internalType": "address",
                    "name": "account",
                    "type": "address"
                }
            ],
            "name": "Paused",
            "type": "event"
        },
        {
            "anonymous": false,
            "inputs": [
                {
                    "indexed": true,
                    "internalType": "address",
                    "name": "oldValue",
                    "type": "address"
                },
                {
                    "indexed": true,
                    "internalType": "address",
                    "name": "newValue",
                    "type": "address"
                }
            ],
            "name": "ProtocolFeeDestinationUpdate",
            "type": "event"
        },
        {
            "anonymous": false,
            "inputs": [
                {
                    "indexed": false,
                    "internalType": "uint256",
                    "name": "tokenId",
                    "type": "uint256"
                }
            ],
            "name": "TokenDisabled",
            "type": "event"
        },
        {
            "anonymous": false,
            "inputs": [
                {
                    "indexed": true,
                    "internalType": "bytes32",
                    "name": "oldValueHash",
                    "type": "bytes32"
                },
                {
                    "indexed": true,
                    "internalType": "bytes32",
                    "name": "newValueHash",
                    "type": "bytes32"
                }
            ],
            "name": "TokenIssuanceCurveUpdate",
            "type": "event"
        },
        {
            "anonymous": false,
            "inputs": [
                {
                    "indexed": false,
                    "internalType": "uint256",
                    "name": "tokenId",
                    "type": "uint256"
                },
                {
                    "indexed": false,
                    "internalType": "uint256",
                    "name": "topicId",
                    "type": "uint256"
                },
                {
                    "indexed": false,
                    "internalType": "bytes32",
                    "name": "messageIdentifier",
                    "type": "bytes32"
                },
                {
                    "indexed": false,
                    "internalType": "enum TokenIssuedReason",
                    "name": "issuedReason",
                    "type": "uint8"
                },
                {
                    "indexed": false,
                    "internalType": "address",
                    "name": "rewardedAddress",
                    "type": "address"
                }
            ],
            "name": "TokenIssued",
            "type": "event"
        },
        {
            "anonymous": false,
            "inputs": [
                {
                    "indexed": true,
                    "internalType": "address",
                    "name": "from",
                    "type": "address"
                },
                {
                    "indexed": true,
                    "internalType": "address",
                    "name": "to",
                    "type": "address"
                },
                {
                    "indexed": true,
                    "internalType": "uint256",
                    "name": "tokenId",
                    "type": "uint256"
                }
            ],
            "name": "Transfer",
            "type": "event"
        },
        {
            "anonymous": false,
            "inputs": [
                {
                    "indexed": true,
                    "internalType": "address",
                    "name": "oldValue",
                    "type": "address"
                },
                {
                    "indexed": true,
                    "internalType": "address",
                    "name": "newValue",
                    "type": "address"
                }
            ],
            "name": "TriggerContractUpdate",
            "type": "event"
        },
        {
            "anonymous": false,
            "inputs": [
                {
                    "indexed": false,
                    "internalType": "address",
                    "name": "account",
                    "type": "address"
                }
            ],
            "name": "Unpaused",
            "type": "event"
        },
        {
            "anonymous": false,
            "inputs": [
                {
                    "indexed": true,
                    "internalType": "address",
                    "name": "implementation",
                    "type": "address"
                }
            ],
            "name": "Upgraded",
            "type": "event"
        },
        {
            "inputs": [],
            "name": "DISCOUNT_PER_SLOWDOWN",
            "outputs": [
                {
                    "internalType": "uint256",
                    "name": "",
                    "type": "uint256"
                }
            ],
            "stateMutability": "view",
            "type": "function"
        },
        {
            "inputs": [],
            "name": "MAX_DISCOUNT",
            "outputs": [
                {
                    "internalType": "uint256",
                    "name": "",
                    "type": "uint256"
                }
            ],
            "stateMutability": "view",
            "type": "function"
        },
        {
            "inputs": [],
            "name": "PROTOCOL_FEE_AMOUNT",
            "outputs": [
                {
                    "internalType": "uint256",
                    "name": "",
                    "type": "uint256"
                }
            ],
            "stateMutability": "view",
            "type": "function"
        },
        {
            "inputs": [],
            "name": "UPGRADE_INTERFACE_VERSION",
            "outputs": [
                {
                    "internalType": "string",
                    "name": "",
                    "type": "string"
                }
            ],
            "stateMutability": "view",
            "type": "function"
        },
        {
            "inputs": [
                {
                    "components": [
                        {
                            "internalType": "address",
                            "name": "initialOwner",
                            "type": "address"
                        },
                        {
                            "internalType": "string",
                            "name": "nftName",
                            "type": "string"
                        },
                        {
                            "internalType": "string",
                            "name": "nftSymbol",
                            "type": "string"
                        },
                        {
                            "internalType": "address[]",
                            "name": "earlyUsers",
                            "type": "address[]"
                        },
                        {
                            "internalType": "uint256[]",
                            "name": "rewardCouponsTopicIds",
                            "type": "uint256[]"
                        },
                        {
                            "components": [
                                {
                                    "internalType": "uint256",
                                    "name": "maxNumberOfSubscribersForPublisherReward",
                                    "type": "uint256"
                                },
                                {
                                    "components": [
                                        {
                                            "internalType": "uint8",
                                            "name": "value",
                                            "type": "uint8"
                                        },
                                        {
                                            "internalType": "uint256",
                                            "name": "end",
                                            "type": "uint256"
                                        }
                                    ],
                                    "internalType": "struct TokenIssuanceCurve.TokenIssuanceCurveRangeSettings[]",
                                    "name": "curveRanges",
                                    "type": "tuple[]"
                                }
                            ],
                            "internalType": "struct TokenIssuanceCurve.TokenIssuanceSettings",
                            "name": "tokenIssuanceCurveSettings",
                            "type": "tuple"
                        }
                    ],
                    "internalType": "struct MurmurNFT.InitializerArgs",
                    "name": "args",
                    "type": "tuple"
                }
            ],
            "name": "_initialize",
            "outputs": [],
            "stateMutability": "nonpayable",
            "type": "function"
        },
        {
            "inputs": [
                {
                    "internalType": "address",
                    "name": "to",
                    "type": "address"
                },
                {
                    "internalType": "uint256",
                    "name": "tokenId",
                    "type": "uint256"
                }
            ],
            "name": "approve",
            "outputs": [],
            "stateMutability": "nonpayable",
            "type": "function"
        },
        {
            "inputs": [
                {
                    "internalType": "address",
                    "name": "owner",
                    "type": "address"
                }
            ],
            "name": "balanceOf",
            "outputs": [
                {
                    "internalType": "uint256",
                    "name": "",
                    "type": "uint256"
                }
            ],
            "stateMutability": "view",
            "type": "function"
        },
        {
            "inputs": [
                {
                    "internalType": "uint256",
                    "name": "tokenId",
                    "type": "uint256"
                }
            ],
            "name": "burn",
            "outputs": [],
            "stateMutability": "nonpayable",
            "type": "function"
        },
        {
            "inputs": [
                {
                    "internalType": "uint256",
                    "name": "tokenId",
                    "type": "uint256"
                }
            ],
            "name": "disable",
            "outputs": [],
            "stateMutability": "nonpayable",
            "type": "function"
        },
        {
            "inputs": [
                {
                    "internalType": "uint256",
                    "name": "tokenId",
                    "type": "uint256"
                }
            ],
            "name": "discountAmount",
            "outputs": [
                {
                    "internalType": "uint256",
                    "name": "discountPercentage",
                    "type": "uint256"
                }
            ],
            "stateMutability": "view",
            "type": "function"
        },
        {
            "inputs": [],
            "name": "executioner",
            "outputs": [
                {
                    "internalType": "address",
                    "name": "",
                    "type": "address"
                }
            ],
            "stateMutability": "view",
            "type": "function"
        },
        {
            "inputs": [
                {
                    "internalType": "uint256",
                    "name": "tokenId",
                    "type": "uint256"
                }
            ],
            "name": "exists",
            "outputs": [
                {
                    "internalType": "bool",
                    "name": "",
                    "type": "bool"
                }
            ],
            "stateMutability": "view",
            "type": "function"
        },
        {
            "inputs": [
                {
                    "internalType": "uint256",
                    "name": "topicId",
                    "type": "uint256"
                }
            ],
            "name": "getAllFeedTokens",
            "outputs": [
                {
                    "internalType": "uint256[]",
                    "name": "tokenIds",
                    "type": "uint256[]"
                }
            ],
            "stateMutability": "view",
            "type": "function"
        },
        {
            "inputs": [
                {
                    "internalType": "uint256",
                    "name": "tokenId",
                    "type": "uint256"
                }
            ],
            "name": "getApproved",
            "outputs": [
                {
                    "internalType": "address",
                    "name": "",
                    "type": "address"
                }
            ],
            "stateMutability": "view",
            "type": "function"
        },
        {
            "inputs": [
                {
                    "internalType": "uint256",
                    "name": "topicId",
                    "type": "uint256"
                },
                {
                    "internalType": "address",
                    "name": "owner",
                    "type": "address"
                }
            ],
            "name": "getDisabledToken",
            "outputs": [
                {
                    "internalType": "uint256",
                    "name": "tokenId",
                    "type": "uint256"
                }
            ],
            "stateMutability": "view",
            "type": "function"
        },
        {
            "inputs": [
                {
                    "internalType": "uint256",
                    "name": "topicId",
                    "type": "uint256"
                },
                {
                    "internalType": "address",
                    "name": "owner",
                    "type": "address"
                }
            ],
            "name": "getFeedTokens",
            "outputs": [
                {
                    "internalType": "uint256[]",
                    "name": "tokenIds",
                    "type": "uint256[]"
                }
            ],
            "stateMutability": "view",
            "type": "function"
        },
        {
            "inputs": [
                {
                    "internalType": "uint256",
                    "name": "tokenId",
                    "type": "uint256"
                }
            ],
            "name": "getTokenData",
            "outputs": [
                {
                    "components": [
                        {
                            "internalType": "uint256",
                            "name": "createdAt",
                            "type": "uint256"
                        },
                        {
                            "internalType": "uint256",
                            "name": "topicId",
                            "type": "uint256"
                        },
                        {
                            "internalType": "bool",
                            "name": "isDisabled",
                            "type": "bool"
                        },
                        {
                            "internalType": "uint256",
                            "name": "slowdowns",
                            "type": "uint256"
                        },
                        {
                            "internalType": "bytes32",
                            "name": "messageIdentifier",
                            "type": "bytes32"
                        },
                        {
                            "internalType": "address",
                            "name": "revealer",
                            "type": "address"
                        }
                    ],
                    "internalType": "struct MurmurNFT.NFTData",
                    "name": "",
                    "type": "tuple"
                }
            ],
            "stateMutability": "view",
            "type": "function"
        },
        {
            "inputs": [],
            "name": "getTokenIssuanceCurveSettings",
            "outputs": [
                {
                    "components": [
                        {
                            "internalType": "uint256",
                            "name": "maxNumberOfSubscribersForPublisherReward",
                            "type": "uint256"
                        },
                        {
                            "components": [
                                {
                                    "internalType": "uint8",
                                    "name": "value",
                                    "type": "uint8"
                                },
                                {
                                    "internalType": "uint256",
                                    "name": "end",
                                    "type": "uint256"
                                }
                            ],
                            "internalType": "struct TokenIssuanceCurve.TokenIssuanceCurveRangeSettings[]",
                            "name": "curveRanges",
                            "type": "tuple[]"
                        }
                    ],
                    "internalType": "struct TokenIssuanceCurve.TokenIssuanceSettings",
                    "name": "",
                    "type": "tuple"
                }
            ],
            "stateMutability": "pure",
            "type": "function"
        },
        {
            "inputs": [
                {
                    "internalType": "bytes32",
                    "name": "messageIdentifier",
                    "type": "bytes32"
                }
            ],
            "name": "getTokensDataByMessageIdentifier",
            "outputs": [
                {
                    "components": [
                        {
                            "internalType": "uint256",
                            "name": "createdAt",
                            "type": "uint256"
                        },
                        {
                            "internalType": "uint256",
                            "name": "topicId",
                            "type": "uint256"
                        },
                        {
                            "internalType": "bool",
                            "name": "isDisabled",
                            "type": "bool"
                        },
                        {
                            "internalType": "uint256",
                            "name": "slowdowns",
                            "type": "uint256"
                        },
                        {
                            "internalType": "bytes32",
                            "name": "messageIdentifier",
                            "type": "bytes32"
                        },
                        {
                            "internalType": "address",
                            "name": "ownerAddress",
                            "type": "address"
                        },
                        {
                            "internalType": "uint256",
                            "name": "tokenId",
                            "type": "uint256"
                        },
                        {
                            "internalType": "address",
                            "name": "revealer",
                            "type": "address"
                        }
                    ],
                    "internalType": "struct MurmurNFT.ExtendedNFTData[]",
                    "name": "extendedNFTData",
                    "type": "tuple[]"
                }
            ],
            "stateMutability": "view",
            "type": "function"
        },
        {
            "inputs": [
                {
                    "components": [
                        {
                            "internalType": "address",
                            "name": "initialOwner",
                            "type": "address"
                        },
                        {
                            "internalType": "string",
                            "name": "nftName",
                            "type": "string"
                        },
                        {
                            "internalType": "string",
                            "name": "nftSymbol",
                            "type": "string"
                        },
                        {
                            "internalType": "address[]",
                            "name": "earlyUsers",
                            "type": "address[]"
                        },
                        {
                            "internalType": "uint256[]",
                            "name": "rewardCouponsTopicIds",
                            "type": "uint256[]"
                        },
                        {
                            "components": [
                                {
                                    "internalType": "uint256",
                                    "name": "maxNumberOfSubscribersForPublisherReward",
                                    "type": "uint256"
                                },
                                {
                                    "components": [
                                        {
                                            "internalType": "uint8",
                                            "name": "value",
                                            "type": "uint8"
                                        },
                                        {
                                            "internalType": "uint256",
                                            "name": "end",
                                            "type": "uint256"
                                        }
                                    ],
                                    "internalType": "struct TokenIssuanceCurve.TokenIssuanceCurveRangeSettings[]",
                                    "name": "curveRanges",
                                    "type": "tuple[]"
                                }
                            ],
                            "internalType": "struct TokenIssuanceCurve.TokenIssuanceSettings",
                            "name": "tokenIssuanceCurveSettings",
                            "type": "tuple"
                        }
                    ],
                    "internalType": "struct MurmurNFT.InitializerArgs",
                    "name": "args",
                    "type": "tuple"
                }
            ],
            "name": "initialize",
            "outputs": [],
            "stateMutability": "nonpayable",
            "type": "function"
        },
        {
            "inputs": [
                {
                    "internalType": "address",
                    "name": "owner",
                    "type": "address"
                },
                {
                    "internalType": "address",
                    "name": "operator",
                    "type": "address"
                }
            ],
            "name": "isApprovedForAll",
            "outputs": [
                {
                    "internalType": "bool",
                    "name": "",
                    "type": "bool"
                }
            ],
            "stateMutability": "view",
            "type": "function"
        },
        {
            "inputs": [
                {
                    "internalType": "uint256",
                    "name": "tokenId",
                    "type": "uint256"
                }
            ],
            "name": "isDisabled",
            "outputs": [
                {
                    "internalType": "bool",
                    "name": "",
                    "type": "bool"
                }
            ],
            "stateMutability": "view",
            "type": "function"
        },
        {
            "inputs": [
                {
                    "internalType": "uint256",
                    "name": "topicId",
                    "type": "uint256"
                },
                {
                    "internalType": "uint256",
                    "name": "tokenId",
                    "type": "uint256"
                }
            ],
            "name": "isLinkedToFeed",
            "outputs": [
                {
                    "internalType": "bool",
                    "name": "",
                    "type": "bool"
                }
            ],
            "stateMutability": "view",
            "type": "function"
        },
        {
            "inputs": [
                {
                    "internalType": "uint256",
                    "name": "tokenId",
                    "type": "uint256"
                }
            ],
            "name": "isOpenToBurn",
            "outputs": [
                {
                    "internalType": "bool",
                    "name": "",
                    "type": "bool"
                }
            ],
            "stateMutability": "view",
            "type": "function"
        },
        {
            "inputs": [],
            "name": "lastTokenId",
            "outputs": [
                {
                    "internalType": "uint256",
                    "name": "",
                    "type": "uint256"
                }
            ],
            "stateMutability": "view",
            "type": "function"
        },
        {
            "inputs": [
                {
                    "internalType": "uint256",
                    "name": "topicId",
                    "type": "uint256"
                },
                {
                    "internalType": "uint256",
                    "name": "slowdowns",
                    "type": "uint256"
                },
                {
                    "internalType": "address",
                    "name": "revealer",
                    "type": "address"
                },
                {
                    "internalType": "address",
                    "name": "emitter",
                    "type": "address"
                },
                {
                    "internalType": "bytes32",
                    "name": "messageIdentifier",
                    "type": "bytes32"
                },
                {
                    "internalType": "uint256",
                    "name": "subscribersNumber",
                    "type": "uint256"
                }
            ],
            "name": "mint",
            "outputs": [],
            "stateMutability": "nonpayable",
            "type": "function"
        },
        {
            "inputs": [],
            "name": "name",
            "outputs": [
                {
                    "internalType": "string",
                    "name": "",
                    "type": "string"
                }
            ],
            "stateMutability": "view",
            "type": "function"
        },
        {
            "inputs": [],
            "name": "owner",
            "outputs": [
                {
                    "internalType": "address",
                    "name": "",
                    "type": "address"
                }
            ],
            "stateMutability": "view",
            "type": "function"
        },
        {
            "inputs": [
                {
                    "internalType": "uint256",
                    "name": "tokenId",
                    "type": "uint256"
                }
            ],
            "name": "ownerOf",
            "outputs": [
                {
                    "internalType": "address",
                    "name": "",
                    "type": "address"
                }
            ],
            "stateMutability": "view",
            "type": "function"
        },
        {
            "inputs": [],
            "name": "pause",
            "outputs": [],
            "stateMutability": "nonpayable",
            "type": "function"
        },
        {
            "inputs": [],
            "name": "paused",
            "outputs": [
                {
                    "internalType": "bool",
                    "name": "",
                    "type": "bool"
                }
            ],
            "stateMutability": "view",
            "type": "function"
        },
        {
            "inputs": [],
            "name": "protocolFeeDestination",
            "outputs": [
                {
                    "internalType": "address",
                    "name": "",
                    "type": "address"
                }
            ],
            "stateMutability": "view",
            "type": "function"
        },
        {
            "inputs": [],
            "name": "proxiableUUID",
            "outputs": [
                {
                    "internalType": "bytes32",
                    "name": "",
                    "type": "bytes32"
                }
            ],
            "stateMutability": "view",
            "type": "function"
        },
        {
            "inputs": [],
            "name": "renounceExecutionerOwnership",
            "outputs": [],
            "stateMutability": "nonpayable",
            "type": "function"
        },
        {
            "inputs": [],
            "name": "renounceOwnership",
            "outputs": [],
            "stateMutability": "nonpayable",
            "type": "function"
        },
        {
            "inputs": [
                {
                    "internalType": "address",
                    "name": "from",
                    "type": "address"
                },
                {
                    "internalType": "address",
                    "name": "to",
                    "type": "address"
                },
                {
                    "internalType": "uint256",
                    "name": "tokenId",
                    "type": "uint256"
                }
            ],
            "name": "safeTransferFrom",
            "outputs": [],
            "stateMutability": "nonpayable",
            "type": "function"
        },
        {
            "inputs": [
                {
                    "internalType": "address",
                    "name": "from",
                    "type": "address"
                },
                {
                    "internalType": "address",
                    "name": "to",
                    "type": "address"
                },
                {
                    "internalType": "uint256",
                    "name": "tokenId",
                    "type": "uint256"
                },
                {
                    "internalType": "bytes",
                    "name": "data",
                    "type": "bytes"
                }
            ],
            "name": "safeTransferFrom",
            "outputs": [],
            "stateMutability": "nonpayable",
            "type": "function"
        },
        {
            "inputs": [
                {
                    "internalType": "address",
                    "name": "operator",
                    "type": "address"
                },
                {
                    "internalType": "bool",
                    "name": "approved",
                    "type": "bool"
                }
            ],
            "name": "setApprovalForAll",
            "outputs": [],
            "stateMutability": "nonpayable",
            "type": "function"
        },
        {
            "inputs": [
                {
                    "internalType": "uint256",
                    "name": "tokenId",
                    "type": "uint256"
                },
                {
                    "internalType": "bool",
                    "name": "openToBurn",
                    "type": "bool"
                }
            ],
            "name": "setOpenToBurn",
            "outputs": [],
            "stateMutability": "nonpayable",
            "type": "function"
        },
        {
            "inputs": [
                {
                    "internalType": "address",
                    "name": "_protocolDestination",
                    "type": "address"
                }
            ],
            "name": "setProtocolFeeDestination",
            "outputs": [],
            "stateMutability": "nonpayable",
            "type": "function"
        },
        {
            "inputs": [
                {
                    "components": [
                        {
                            "internalType": "uint256",
                            "name": "maxNumberOfSubscribersForPublisherReward",
                            "type": "uint256"
                        },
                        {
                            "components": [
                                {
                                    "internalType": "uint8",
                                    "name": "value",
                                    "type": "uint8"
                                },
                                {
                                    "internalType": "uint256",
                                    "name": "end",
                                    "type": "uint256"
                                }
                            ],
                            "internalType": "struct TokenIssuanceCurve.TokenIssuanceCurveRangeSettings[]",
                            "name": "curveRanges",
                            "type": "tuple[]"
                        }
                    ],
                    "internalType": "struct TokenIssuanceCurve.TokenIssuanceSettings",
                    "name": "newSettings",
                    "type": "tuple"
                }
            ],
            "name": "setTokenIssuanceCurveSettings",
            "outputs": [],
            "stateMutability": "nonpayable",
            "type": "function"
        },
        {
            "inputs": [
                {
                    "internalType": "address",
                    "name": "_contractAddress",
                    "type": "address"
                }
            ],
            "name": "setTriggerContract",
            "outputs": [],
            "stateMutability": "nonpayable",
            "type": "function"
        },
        {
            "inputs": [
                {
                    "internalType": "bytes4",
                    "name": "interfaceId",
                    "type": "bytes4"
                }
            ],
            "name": "supportsInterface",
            "outputs": [
                {
                    "internalType": "bool",
                    "name": "",
                    "type": "bool"
                }
            ],
            "stateMutability": "view",
            "type": "function"
        },
        {
            "inputs": [],
            "name": "symbol",
            "outputs": [
                {
                    "internalType": "string",
                    "name": "",
                    "type": "string"
                }
            ],
            "stateMutability": "view",
            "type": "function"
        },
        {
            "inputs": [
                {
                    "internalType": "uint256",
                    "name": "topicSubscribersNumbers",
                    "type": "uint256"
                }
            ],
            "name": "tokenIssuance",
            "outputs": [
                {
                    "internalType": "uint256",
                    "name": "",
                    "type": "uint256"
                }
            ],
            "stateMutability": "view",
            "type": "function"
        },
        {
            "inputs": [
                {
                    "internalType": "uint256",
                    "name": "tokenId",
                    "type": "uint256"
                }
            ],
            "name": "tokenURI",
            "outputs": [
                {
                    "internalType": "string",
                    "name": "",
                    "type": "string"
                }
            ],
            "stateMutability": "view",
            "type": "function"
        },
        {
            "inputs": [],
            "name": "totalSupply",
            "outputs": [
                {
                    "internalType": "uint256",
                    "name": "",
                    "type": "uint256"
                }
            ],
            "stateMutability": "view",
            "type": "function"
        },
        {
            "inputs": [
                {
                    "internalType": "address",
                    "name": "newExecutioner",
                    "type": "address"
                }
            ],
            "name": "transferExecutionerOwnership",
            "outputs": [],
            "stateMutability": "nonpayable",
            "type": "function"
        },
        {
            "inputs": [
                {
                    "internalType": "address",
                    "name": "from",
                    "type": "address"
                },
                {
                    "internalType": "address",
                    "name": "to",
                    "type": "address"
                },
                {
                    "internalType": "uint256",
                    "name": "tokenId",
                    "type": "uint256"
                }
            ],
            "name": "transferFrom",
            "outputs": [],
            "stateMutability": "nonpayable",
            "type": "function"
        },
        {
            "inputs": [
                {
                    "internalType": "address",
                    "name": "newOwner",
                    "type": "address"
                }
            ],
            "name": "transferOwnership",
            "outputs": [],
            "stateMutability": "nonpayable",
            "type": "function"
        },
        {
            "inputs": [],
            "name": "triggerContract",
            "outputs": [
                {
                    "internalType": "address",
                    "name": "",
                    "type": "address"
                }
            ],
            "stateMutability": "view",
            "type": "function"
        },
        {
            "inputs": [],
            "name": "unpause",
            "outputs": [],
            "stateMutability": "nonpayable",
            "type": "function"
        },
        {
            "inputs": [
                {
                    "internalType": "address",
                    "name": "newImplementation",
                    "type": "address"
                },
                {
                    "internalType": "bytes",
                    "name": "data",
                    "type": "bytes"
                }
            ],
            "name": "upgradeToAndCall",
            "outputs": [],
            "stateMutability": "payable",
            "type": "function"
        }
    ],
    "bytecode": "0x60a0806040523460c857306080527ff0c57e16840df040f15088dc2f81fe391c3923bec73e23a9662efc9c229c6a009081549060ff8260401c1660b957506001600160401b036002600160401b0319828216016075575b604051614e8e90816100ce823960805181818161113e01526112980152f35b6001600160401b031990911681179091556040519081527fc7f505b2f371ae2175ee4913f4499e1f2633a7b5936321eed1cdaeb6115181d290602090a13880806056565b63f92ee8a960e01b8152600490fd5b600080fdfe6080604052600436101561001257600080fd5b60003560e01c806301ffc9a7146103625780630360ad471461035d57806305949a33146102ea57806306fdde0314610358578063081812fc14610353578063095ea7b31461034e578063128ef02214610349578063154d774f1461034457806318160ddd1461033f57806322fed7681461033a57806323b872dd1461033557806327199a52146103305780633a7a3a121461032b5780633bce3517146103265780633f4ba83a1461032157806342842e0e1461031c57806342966c681461031757806345f4d3ca146103125780634ce7957c1461030d5780634f1ef286146103085780634f558e791461030357806352d1902d146102fe5780635867522c146102f95780635c975abb146102f45780636352211e146102ef5780636a841411146102ea57806370a08231146102e5578063715018a6146102e05780637617c7fb146102db5780638409f4c7146102d65780638456cb59146102d15780638bc922c0146102cc5780638da5cb5b146102c757806392fafd6c146102c257806395d89b41146102bd5780639752b4c1146102b85780639946b9a5146102b3578063a10786b0146102ae578063a22cb465146102a9578063ad25ca29146102a4578063ad3cb1cc1461029f578063b09afec11461029a578063b88d4fde14610295578063c87b56dd14610290578063d2b799ad1461028b578063db5f6e5314610286578063dc6ab02f14610281578063e15cbadd1461027c578063e349556914610277578063e985e9c514610272578063ead1cd841461026d578063f2fde38b146102685763f84ddf0b1461026357600080fd5b612460565b612437565b6123c8565b61238b565b61236f565b61226c565b612236565b61220d565b6121e4565b611f33565b611edf565b611dc7565b611d81565b611d50565b611cb3565b611c32565b611bb5565b611b70565b611aad565b61198c565b611956565b6117c6565b61175f565b611599565b611447565b6113dc565b611387565b610445565b611357565b611327565b6112de565b611285565b61125d565b6110ff565b6110d6565b6110b0565b610fcb565b610f98565b610f21565b610f03565b610e98565b610dad565b6109e2565b6108a5565b61084b565b61080d565b610778565b61066b565b6105b4565b6104bd565b6103ec565b61037e565b6001600160e01b031981160361037957565b600080fd5b3461037957602036600319011261037957602060043561039d81610367565b63ffffffff60e01b166380ac58cd60e01b81149081156103db575b81156103ca575b506040519015158152f35b6301ffc9a760e01b149050386103bf565b635b5e139f60e01b811491506103b8565b3461037957604036600319011261037957602435610409816129cb565b1561042d576000526006602052602060043560016040600020015414604051908152f35b6024906040519063568b892b60e11b82526004820152fd5b3461037957600036600319011261037957602060405160058152f35b60005b8381106104745750506000910152565b8181015183820152602001610464565b9060209161049d81518092818552858086019101610461565b601f01601f1916010190565b9060206104ba928181520190610484565b90565b34610379576000806003193601126105b1576040519080600080516020614cf983398151915280546104ee8161249b565b80865292602092600192808416908115610582575060011461052b575b6105278761051b81890382610a9d565b604051918291826104a9565b0390f35b815293507f37c58c799b6609234b945e882912ee9ad34948a1dfaa20a97485e1a7752bbf815b83851061056f5750505050810160200161051b82610527388061050b565b8054868601840152938201938101610551565b9150508695506105279693506020925061051b94915060ff191682840152151560051b8201019293388061050b565b80fd5b34610379576020366003190112610379576004356105d1816136ae565b50600052600080516020614dd9833981519152602052602060018060a01b0360406000205416604051908152f35b600435906001600160a01b038216820361037957565b602435906001600160a01b038216820361037957565b604435906001600160a01b038216820361037957565b606435906001600160a01b038216820361037957565b35906001600160a01b038216820361037957565b34610379576040366003190112610379576106846105ff565b60243590610691826136ae565b33151580610765575b80610736575b61071e5761071c926106fd9181906001600160a01b0385811691167f8c5be1e5ebec7d5bd14f71427d1e84f3dd0314c0f7b2291e5b200ac8c7c3b925600080a4600052600080516020614dd9833981519152602052604060002090565b80546001600160a01b0319166001600160a01b03909216919091179055565b005b60405163a9fbf51f60e01b8152336004820152602490fd5b5060ff61075d3361074684612a2e565b9060018060a01b0316600052602052604060002090565b5416156106a0565b506001600160a01b03811633141561069a565b34610379576020366003190112610379576020610796600435612511565b604051908152f35b6020916020825260206060830191805182850152015192602060806040946040808201528651809552019401926000905b8382106107de57505050505090565b90919293948382826108006001948a516020809160ff81511684520151910152565b01960194939201906107cf565b34610379576000366003190112610379576060602060405161082e81610a0f565b60008152015261052761083f6125ef565b6040519182918261079e565b34610379576000366003190112610379576020600354604051908152f35b602090602060408183019282815285518094520193019160005b828110610891575050505090565b835185529381019392810192600101610883565b34610379576040366003190112610379576004356108c1610615565b908060005260046020526108d960406000205461269b565b906108ee816000526004602052604060002090565b549260009160005b85811061090e57838552604051806105278782610869565b61093861092e82610929856000526004602052604060002090565b6126cd565b90549060031b1c90565b610941816129cb565b80610997575b8061097a575b61095b575b506001016108f6565b846109739161096d60019497896124fd565b526126fb565b9390610952565b50610984816136ae565b6001600160a01b0385811691161461094d565b506109a86109a482612c90565b1590565b610947565b6060906003190112610379576001600160a01b0390600435828116810361037957916024359081168103610379579060443590565b346103795761071c6109f3366109ad565b9161270a565b634e487b7160e01b600052604160045260246000fd5b604081019081106001600160401b03821117610a2a57604052565b6109f9565b60c081019081106001600160401b03821117610a2a57604052565b61010081019081106001600160401b03821117610a2a57604052565b602081019081106001600160401b03821117610a2a57604052565b61018081019081106001600160401b03821117610a2a57604052565b90601f801991011681019081106001600160401b03821117610a2a57604052565b60405190610acb82610a2f565b565b6001600160401b038111610a2a57601f01601f191660200190565b81601f8201121561037957803590610aff82610acd565b92610b0d6040519485610a9d565b8284526020838301011161037957816000926020809301838601378301015290565b6001600160401b038111610a2a5760051b60200190565b9080601f83011215610379576020908235610b6081610b2f565b93610b6e6040519586610a9d565b81855260208086019260051b82010192831161037957602001905b828210610b97575050505090565b838091610ba384610657565b815201910190610b89565b9080601f83011215610379576020908235610bc881610b2f565b93610bd66040519586610a9d565b81855260208086019260051b82010192831161037957602001905b828210610bff575050505090565b81358152908301908301610bf1565b91906040928381830312610379578351610c2781610a0f565b80948235825260209283810135906001600160401b038211610379570184601f82011215610379578035610c5a81610b2f565b95610c6784519788610a9d565b818752858088019260061b84010192818411610379578601915b838310610c915750505050500152565b848383031261037957845190610ca682610a0f565b83359060ff82168203610379578289928894528286013583820152815201920191610c81565b60031990602081830112610379576004908135916001600160401b03938484116103795760c090848403011261037957610d04610abe565b93610d10848301610657565b85526024840135818111610379578383610d2c92870101610ae8565b60208601526044840135818111610379578383610d4b92870101610ae8565b60408601526064840135818111610379578383610d6a92870101610b46565b60608601526084840135818111610379578383610d8992870101610bae565b608086015260a484013590811161037957610da5930101610c0e565b60a082015290565b3461037957610dbb36610ccc565b610dc3613999565b610dcb6139c8565b610dde60208201516040830151906139f1565b8051610df2906001600160a01b0316613b1d565b610dfa613999565b8051610e0e906001600160a01b0316613b31565b610e16613b45565b610e206000600255565b610e2a6000600355565b610e3760a0820151612b42565b6060810160005b815190815181101561071c57610e66610e59826001946124fd565b516001600160a01b031690565b828060a01b038116610e7a575b5001610e3e565b610e9290610e8c8360808801516124fd565b51613b92565b38610e73565b34610379576000806003193601126105b157610eb2613d51565b600080516020614d3983398151915280546001600160a01b0319811690915581906001600160a01b03167f433907d7505de12b12fe38b1abc0bdec9ac7e90e2db75188a0f69883331c8cec8280a380f35b34610379576020366003190112610379576020610796600435612847565b3461037957600036600319011261037957610f3a613d8a565b600080516020614d99833981519152805460ff811615610f865760ff191690557f5db9ee0a495bf2e6ff9c91a7834c1ba4fdd244a5e8aa4e537bd38aeae4b073aa6020604051338152a1005b604051638dfc202b60e01b8152600490fd5b346103795761071c610fa9366109ad565b9060405192610fb784610a66565b60008452610fc683838361270a565b61401f565b346103795760203660031901126103795760008054600435906001600160a01b03908116330361109e57610ffe826136de565b16156110865761103281611056928452600660205260046040852001548061106c575b506000526006602052604060002090565b60056000918281558260018201558260028201558260038201558260048201550155565b6110696110646003546128bb565b600355565b80f35b845260056020526110808160408620613e03565b38611021565b60249060405190637e27328960e01b82526004820152fd5b60405163c31dd1d760e01b8152600490fd5b346103795760403660031901126103795760206107966110ce610615565b6004356128c8565b34610379576000366003190112610379576001546040516001600160a01b039091168152602090f35b6040366003190112610379576111136105ff565b6024356001600160401b03811161037957611132903690600401610ae8565b6001600160a01b0391907f00000000000000000000000000000000000000000000000000000000000000008316308114908115611241575b5061122f57602060049361117c613d8a565b6040516352d1902d60e01b8152948591829086165afa600093816111fe575b506111c557604051634c9c8ce360e01b81526001600160a01b0383166004820152602490fd5b0390fd5b90600080516020614d5983398151915283036111e55761071c9250614a44565b604051632a87526960e21b815260048101849052602490fd5b61122191945060203d602011611228575b6112198183610a9d565b810190613e83565b923861119b565b503d61120f565b60405163703e46dd60e11b8152600490fd5b905083600080516020614d59833981519152541614153861116a565b3461037957602036600319011261037957602061127b6004356129cb565b6040519015158152f35b34610379576000366003190112610379577f00000000000000000000000000000000000000000000000000000000000000006001600160a01b0316300361122f576020604051600080516020614d598339815191528152f35b34610379576020366003190112610379576004356112fb816129cb565b8061130e575b6020906040519015158152f35b506000526007602052602060ff60406000205416611301565b3461037957600036600319011261037957602060ff600080516020614d9983398151915254166040519015158152f35b346103795760203660031901126103795760206113756004356136ae565b6040516001600160a01b039091168152f35b34610379576020366003190112610379576113a06105ff565b6001600160a01b038116156113c3576113ba6020916129f5565b54604051908152f35b6040516322718ad960e21b815260006004820152602490fd5b34610379576000806003193601126105b1576113f6613d8a565b600080516020614d1983398151915280546001600160a01b0319811690915581906001600160a01b03167f8be0079c531659141344cd1fd0a4f28419497f9722a3daafe3b4186f6b6457e08280a380f35b346103795760208060031936011261037957600480359160008381526004602052604090611478604082205461269b565b9385825260046020526040822054938296835b8681106114a357888852604051806105278a82610869565b8185528383526114b861092e828888206126cd565b6114c1816129cb565b806114ee575b6114d5575b5060010161148b565b896114e79161096d6001949c8c6124fd565b98906114cc565b506114fb6109a482612c90565b6114c7565b60208082019080835283518092528060408094019401926000905b83821061152a57505050505090565b845180518752808401518785015280820151151587830152606080820151908801526080808201519088015260a0808201516001600160a01b039081169189019190915260c0808301519089015260e0918201511690870152610100909501949382019360019091019061151b565b34610379576020806003193601126103795760048035918260005260058060205260409360406000205415611747576115df6115e4916000526005602052604060002090565b612a67565b926115ef8451612ab8565b9460005b85518110156117395780611733611727828a60c061161f6116166001988e6124fd565b519384936124fd565b5101528a89611645868861163d866000526006602052604060002090565b0154936124fd565b51015261165c816000526006602052604060002090565b54611667858d6124fd565b51526116a28b8761169987611693600261168b886000526006602052604060002090565b015460ff1690565b936124fd565b51019015159052565b8a60606116bf86600361163d866000526006602052604060002090565b5101528a60806116de868a61163d866000526006602052604060002090565b5101526117228b60e0611711876116938d611703886000526006602052604060002090565b01546001600160a01b031690565b516001600160a01b03909216910152565b6136ae565b60a0611711848c6124fd565b016115f3565b604051806105278982611500565b60249060405190630e46dc0360e21b82526004820152fd5b3461037957600036600319011261037957611778613d8a565b6117806146fc565b600080516020614d99833981519152600160ff198254161790557f62e78cea01bee320cd4e420270b5ea74000d11b0c9f74754ebdbfc544b05a2586020604051338152a1005b346103795760208060031936011261037957600480356001600160401b038111610379576117f8903690600401610c0e565b91611801613d8a565b6020830191825180511561194457611818816124eb565b5194602086015115801561192f575b611909576001955b825187101561187a5761184287846124fd565b51908582015186820151101561185e575060019096019561182f565b846111c18360405193849363027b943960e61b85528401614aeb565b50846118846125ef565b61188c613e92565b60005b825180518210156118b657906118b06118aa826001946124fd565b51613f00565b0161188f565b6118d6836118d18751600080516020614d7983398151915255565b614b23565b6118e16118d16125ef565b907f66b7d814beb3ae501cb08fd8d4f239491f15aa23c3b675ad93c9c04e47613c02600080a3005b604051630e20802f60e01b8152865160ff16600482015260208701516024820152604490fd5b5060ff61193d875160ff1690565b1615611827565b60405163019ee2b160e71b8152600490fd5b3461037957600036600319011261037957600080516020614d19833981519152546040516001600160a01b039091168152602090f35b346103795761199a36610ccc565b600080516020614df983398151915254906001600160401b0360ff8360401c1615921680159081611aa5575b6001149081611a9b575b159081611a92575b50611a8057600080516020614df9833981519152805467ffffffffffffffff19166001179055611a0c9082611a5b57612777565b611a1257005b600080516020614df9833981519152805460ff60401b19169055604051600181527fc7f505b2f371ae2175ee4913f4499e1f2633a7b5936321eed1cdaeb6115181d290602090a1005b600080516020614df9833981519152805460ff60401b1916600160401b179055612777565b60405163f92ee8a960e01b8152600490fd5b905015386119d8565b303b1591506119d0565b8391506119c6565b34610379576000806003193601126105b1576040519080600080516020614e398339815191528054611ade8161249b565b808652926020926001928084169081156105825750600114611b0a576105278761051b81890382610a9d565b815293507ff4bad0a69248f59680a4f2b3000328cec71a413447c96781cfe5996daa8c456e5b838510611b4e5750505050810160200161051b82610527388061050b565b8054868601840152938201938101611b30565b60243590811515820361037957565b346103795760403660031901126103795761071c611b8c611b61565b611b94613d51565b600435600052600760205260406000209060ff801983541691151516179055565b3461037957602036600319011261037957600054600435906001600160a01b0316330361109e57611be5816129cb565b1561042d576020817f576b5230e90c9148dfa89726a157d49e5a7e990c475ebad49812c1a123701dfd92600052600682526002604060002001600160ff19825416179055604051908152a1005b3461037957602036600319011261037957611c4b6105ff565b611c53613d8a565b6001600160a01b03908116908115611ca157816001549182167fda57527634baefc63659e8d23c768095b50b8c21b8a92296d69128f810922368600080a36001600160a01b03191617600155005b604051636315db1160e01b8152600490fd5b3461037957604036600319011261037957611ccc6105ff565b611cd4611b61565b6001600160a01b038216918215611d375781611cf6611d079261074633612a2e565b9060ff801983541691151516179055565b60405190151581527f17307eab39ab6107e8899845ad3d59bd9653f200f220920489ca2b5937696c3160203392a3005b604051630b61174360e31b815260048101849052602490fd5b3461037957602036600319011261037957602061127b600435612c90565b60405190611d7b82610a66565b60008252565b3461037957600036600319011261037957610527604051611da181610a0f565b60058152640352e302e360dc1b6020820152604051918291602083526020830190610484565b346103795760203660031901126103795760a06004356040908151611deb81610a2f565b600093818580935282602082015282858201528260608201528260808201520152611e15816129cb565b15611ec957828291610527945260066020522090611e7c815192611e3884610a2f565b8054845260018101546020850152600281015460ff161515838501526003810154606085015260048101546080850152600501546001600160a01b031660a0840152565b519182918291909160a060c08201938051835260208101516020840152604081015115156040840152606081015160608401526080810151608084015281600180821b0391015116910152565b602491519063568b892b60e11b82526004820152fd5b3461037957608036600319011261037957611ef86105ff565b611f00610615565b90604435606435926001600160401b03841161037957611f2761071c943690600401610ae8565b92610fc683838361270a565b3461037957602036600319011261037957600435611f50816129cb565b1561042d57611f6e611f69611f6483612847565b614189565b612ccc565b611f8e6001611f87846000526006602052604060002090565b0154614189565b91611fa8600261168b836000526006602052604060002090565b156121d657828183808280611fbb612d28565b6121a36105279a6120e96120fd61051b9c6120e96120ef6120c16121d19f6120e99f6121cc9f9a60209f6121be9f6121b19f6120e99e6120a461209e61208d6120bb996120886120b59a6120838b61207e6120af9b61207961205860046120516120aa9f61203b6005611703612040936000526006602052604060002090565b6142cd565b9a6000526006602052604060002090565b0154614390565b956120748d61206e612068612d48565b91614189565b90612ee6565b612fae565b613077565b613118565b6131d6565b613277565b926000526006602052604060002090565b546144ea565b90613340565b613416565b9a613453565b9a614189565b96614615565b956040519e8f9d8e01601290717b226e616d65223a2022436f75706f6e202360701b81520190565b90612cb5565b61040560f31b815260020190565b7f29222c20226465736372697074696f6e223a202254686973206973206120756e81527f6971756520636f75706f6e20746f2062652075736564206f6e2061207370656360208201527f6966696320746f70696320696e20746865204d75726d757220617070222c226960408201527f6d616765223a2022646174613a696d6167652f7376672b786d6c3b62617365366060820152610d0b60f21b608082015260820190565b61088b60f21b815260020190565b607d60f81b815260010190565b03601f198101835282610a9d565b614615565b613572565b828183808280611fbb612d04565b34610379576000366003190112610379576000546040516001600160a01b039091168152602090f35b346103795760203660031901126103795761071c6122296105ff565b612231613d8a565b6135c6565b3461037957600036600319011261037957600080516020614d39833981519152546040516001600160a01b039091168152602090f35b346103795760c03660031901126103795760243560043561228b61062b565b612293610641565b600080549094608435939160a435906001600160a01b0316330361109e576122b96146fc565b841561235d5784875260056020526040872054612344576122dd858480858a614727565b6122e681612511565b600019810190811161233f57875b818110612329575050600080516020614d79833981519152541015612317578580f35b61232094614727565b38808080808580f35b600190612339888780888d614727565b016122f4565b6126e5565b604051631bc1dc9160e01b815260048101869052602490fd5b604051632eb6d7bd60e01b8152600490fd5b34610379576000366003190112610379576020604051605a8152f35b3461037957604036600319011261037957602060ff6123bc6123ab6105ff565b6107466123b6610615565b91612a2e565b54166040519015158152f35b34610379576020366003190112610379576123e16105ff565b6123e9613d8a565b6001600160a01b039081168015611ca1576000918183549182167fb86e8c1fabb7f1f27f44811f21b46ea29ec5a87a2ceaa96580038efa882bb26c8580a36001600160a01b03191617815580f35b346103795760203660031901126103795761071c6124536105ff565b61245b613d8a565b61363a565b34610379576000366003190112610379576020600254604051908152f35b600052600080516020614db9833981519152602052604060002090565b90600182811c921680156124cb575b60208310146124b557565b634e487b7160e01b600052602260045260246000fd5b91607f16916124aa565b634e487b7160e01b600052603260045260246000fd5b8051156124f85760200190565b6124d5565b80518210156124f85760209160051b010190565b600080516020614e1983398151915280549161252c83610b2f565b9260409261253d6040519586610a9d565b8185526000908152602093600080516020614cd983398151915290858088015b8585106125bf575050505050506000602060405161257a81610a0f565b828152015260005b83518110156125b65761259581856124fd565b51838101518311156125aa5750600101612582565b5160ff16949350505050565b50505050600190565b60019160029184516125d081610a0f565b60ff87541681528487015483820152815201930193019291869061255d565b604090604051916125ff83610a0f565b82600080516020614d79833981519152548152600080516020614e1983398151915280549061262d82610b2f565b9361263b6040519586610a9d565b8285526000918252602090600080516020614cd9833981519152908287015b85851061266d5750505050505060200152565b600284600192845161267e81610a0f565b60ff8754168152848701548382015281520193019401939161265a565b906126a582610b2f565b6126b26040519182610a9d565b82815280926126c3601f1991610b2f565b0190602036910137565b80548210156124f85760005260206000200190600090565b634e487b7160e01b600052601160045260246000fd5b600019811461233f5760010190565b91906001600160a01b03908181161561275e5761272a82918433916138d8565b931692169082820361273b57505050565b60649350604051926364283d7b60e01b8452600484015260248301526044820152fd5b604051633250574960e11b815260006004820152602490fd5b90612780613999565b6127886139c8565b61279b60208301516040840151906139f1565b81516127af906001600160a01b0316613b1d565b6127b7613999565b81516127cb906001600160a01b0316613b31565b6127d3613b45565b6127dd6000600255565b6127e76000600355565b6127f460a0830151612b42565b60005b606083015180518210156128415790612815610e59826001946124fd565b828060a01b038116612829575b50016127f7565b61283b90610e8c8360808801516124fd565b38612822565b50509050565b612850816129cb565b1561042d5760005260066020526003604060002001546001810180911161233f5760058102908082046005149015171561233f57605a811161288f5790565b50605a90565b906002820180921161233f57565b600281901b91906001600160fe1b0381160361233f57565b801561233f576000190190565b9060005b6128e0836000526004602052604060002090565b548110156129b95761290081610929856000526004602052604060002090565b9054600391821b1c90612912826129cb565b8061299c575b612927575b50506001016128cc565b61293b826000526006602052604060002090565b9060a060409283519261294d84610a2f565b815484526001820154602085015260ff600283015416151580958501528101546060840152600481015460808401526005600180841b0391015416910152612995578061291d565b9250505090565b506129a6826136ae565b6001600160a01b03858116911614612918565b60405163f070cb6f60e01b8152600490fd5b6000908152600080516020614db983398151915260205260409020546001600160a01b0316151590565b6001600160a01b031660009081527f80bb2b638cc20bc4d0a60d66940f3ab4a00c1d7b313497ca82fb0b4ab00793036020526040902090565b6001600160a01b031660009081527f80bb2b638cc20bc4d0a60d66940f3ab4a00c1d7b313497ca82fb0b4ab00793056020526040902090565b90604051918281549182825260209260208301916000526020600020936000905b828210612a9e57505050610acb92500383610a9d565b855484526001958601958895509381019390910190612a88565b90612ac282610b2f565b604090612ad26040519182610a9d565b8381528093612ae3601f1991610b2f565b019160005b838110612af55750505050565b6020908251612b0381610a4a565b60008152826000818301526000858301526000606083015260006080830152600060a0830152600060c0830152600060e0830152828601015201612ae8565b90612b4b613d8a565b602091602081019081519081511561194457612b66826124eb565b51926020840151158015612c7b575b612c55576001935b8351851015612bc857612b9085856124fd565b519087820151888201511015612bac5750600190940193612b7d565b6111c160405192839263027b943960e61b845260048401614aeb565b50939250935050612bd76125ef565b612bdf613e92565b60005b83518051821015612c035790612bfd6118aa826001946124fd565b01612be2565b50509251600080516020614d798339815191525591612c229150614b23565b612c2d6118d16125ef565b907f66b7d814beb3ae501cb08fd8d4f239491f15aa23c3b675ad93c9c04e47613c02600080a3565b604051630e20802f60e01b8152845160ff16600482015260208501516024820152604490fd5b5060ff612c89855160ff1690565b1615612b75565b612c99816129cb565b1561042d57600052600660205260ff6002604060002001541690565b90612cc860209282815194859201610461565b0190565b90610acb602160405184612cea829651809260208086019101610461565b8101602560f81b6020820152036001810185520183610a9d565b60405190612d1182610a0f565b6008825267139bdd081d5cd95960c21b6020830152565b60405190612d3582610a0f565b6004825263155cd95960e21b6020830152565b60405190612d5582610a81565b6101418252601f60f91b610160837f3c73766720786d6c6e733d22687474703a2f2f7777772e77332e6f72672f323060208201527f30302f73766722207072657365727665417370656374526174696f3d22784d6960408201527f6e594d696e206d656574222076696577426f783d22302030203535302033383060608201527f223e3c646566733e3c7374796c653e2e62617365207b2066696c6c3a2023464660808201527f464646463b20666f6e742d66616d696c793a206d6f6e6f73706163653b20666f60a08201527f6e742d73697a653a20313070783b207d3c2f7374796c653e3c7374796c653e2e60c08201527f6261736532207b2066696c6c3a20233244303038303b20666f6e742d66616d6960e08201527f6c793a206d6f6e6f73706163653b20666f6e742d73697a653a20313070783b206101008201527f7d3c2f7374796c653e3c2f646566733e3c726563742077696474683d223130306101208201527f2522206865696768743d2231303025222066696c6c3d2223304130413041222f6101408201520152565b607a610acb919392936040519481612f08879351809260208087019101610461565b82017f3c7465787420783d2231302220793d2232302220636c6173733d2262617365226020820152601f60f91b604082015267436f75706f6e202360c01b6041820152612f5f825180936020604985019101610461565b017f3c747370616e2066696c6c3d22626c7565223e202842617365204d61696e6e656049820152703a149e17ba39b830b71f1e17ba32bc3a1f60791b606982015203605a810185520183610a9d565b607b610acb919392936040519481612fd0879351809260208087019101610461565b82017f3c7465787420783d2231302220793d2235302220636c6173733d22626173653260208201527f223e546f7069632049443a3c2f746578743e3c7465787420783d2231302220796040820152721e911b98111031b630b9b99e913130b9b2911f60691b6060820152602360f81b6073820152613058825180936020607485019101610461565b01661e17ba32bc3a1f60c91b607482015203605b810185520183610a9d565b607b610acb919392936040519481613099879351809260208087019101610461565b82017f3c7465787420783d2231302220793d2239302220636c6173733d22626173653260208201527f223e446973636f756e743a3c2f746578743e3c7465787420783d2231302220796040820152731e91189898111031b630b9b99e913130b9b2911f60611b6060820152613058825180936020607485019101610461565b6079610acb91939293604051948161313a879351809260208087019101610461565b82017f3c7465787420783d2231302220793d223133302220636c6173733d226261736560208201527f32223e53746174653a3c2f746578743e3c7465787420783d2231302220793d22604082015271189a98111031b630b9b99e913130b9b2911f60711b60608201526131b7825180936020607285019101610461565b01661e17ba32bc3a1f60c91b6072820152036059810185520183610a9d565b607b610acb9193929360405194816131f8879351809260208087019101610461565b82017f3c7465787420783d2231302220793d223137302220636c6173733d226261736560208201527f32223e506f73742049443a3c2f746578743e3c7465787420783d2231302220796040820152731e91189c98111031b630b9b99e913130b9b2911f60611b6060820152613058825180936020607485019101610461565b607f610acb919392936040519481613299879351809260208087019101610461565b82017f3c7465787420783d2231302220793d223231302220636c6173733d226261736560208201527f32223e52657665616c65642062793a3c2f746578743e3c7465787420783d223160408201527f302220793d223233302220636c6173733d2262617365223e00000000000000006060820152613321825180936020607885019101610461565b01661e17ba32bc3a1f60c91b607882015203605f810185520183610a9d565b608b610acb919392936040519481613362879351809260208087019101610461565b82017f3c7465787420783d2231302220793d223235302220636c6173733d226261736560208201527f32223e4372656174656420617420284d4d2d44442d59595959293a3c2f74657860408201527f743e3c7465787420783d2231302220793d223237302220636c6173733d22626160608201526339b2911f60e11b60808201526133f7825180936020608485019101610461565b01661e17ba32bc3a1f60c91b608482015203606b810185520183610a9d565b90610acb602660405184613434829651809260208086019101610461565b8101651e17b9bb339f60d11b6020820152036006810185520183610a9d565b60a690610acb9294936040519586927f2261747472696275746573223a205b7b2274726169745f74797065223a20227460208501527337b834b1afb4b2111610113b30b63ab2911d101160611b60408501526134b9815180926020605488019101610461565b83017f227d2c207b2274726169745f74797065223a2022646973636f756e74222c20226054820152683b30b63ab2911d101160b91b6074820152613507825180936020607d85019101610461565b017f227d2c207b2274726169745f74797065223a20227374617465222c202276616c607d820152653ab2911d101160d11b609d82015261355182518093602060a385019101610461565b0161356460a3820162227d5d60e81b9052565b036086810185520183610a9d565b90610acb603d60405180947f646174613a6170706c69636174696f6e2f6a736f6e3b6261736536342c00000060208301526135b68151809260208686019101610461565b810103601d810185520183610a9d565b6001600160a01b0390811690811561362157600080516020614d3983398151915280546001600160a01b031981168417909155167f433907d7505de12b12fe38b1abc0bdec9ac7e90e2db75188a0f69883331c8cec600080a3565b604051632dd7dc4760e11b815260006004820152602490fd5b6001600160a01b0390811690811561369557600080516020614d1983398151915280546001600160a01b031981168417909155167f8be0079c531659141344cd1fd0a4f28419497f9722a3daafe3b4186f6b6457e0600080a3565b604051631e4fbdf760e01b815260006004820152602490fd5b6000818152600080516020614db983398151915260205260409020546001600160a01b0316908115611086575090565b6000818152600080516020614db983398151915260205260408120546001600160a01b03919082161515806137d0575b806137c1575b15613732576040516318bafb9160e11b815260048101849052602490fd5b61373d9291926146fc565b6137566137498361247e565b546001600160a01b031690565b928316806137a2575b61377b61376b8461247e565b80546001600160a01b0319169055565b7fddf252ad1be2c89b69c2b068fc378daa952ba7f163c4a11628f55a4df523b3ef8280a490565b6137ab83614829565b6137b4846129f5565b805460001901905561375f565b506137cb83612c90565b613714565b508061370e565b6000828152600080516020614db983398151915260205260409020546001600160a01b03919082161515806138cd575b806138be575b1561382b576040516318bafb9160e11b815260048101849052602490fd5b6138369291926146fc565b6138426137498361247e565b92613862818516918261389f575b8316928361388a575b6106fd8561247e565b7fddf252ad1be2c89b69c2b068fc378daa952ba7f163c4a11628f55a4df523b3ef600080a490565b613893816129f5565b60018154019055613859565b6138a885614829565b6138b1866129f5565b8054600019019055613850565b506138c883612c90565b61380d565b508181161515613807565b6000828152600080516020614db983398151915260205260409020549192916001600160a01b0390811615158061398e575b8061397f575b1561392e576040516318bafb9160e11b815260048101859052602490fd5b6139399392936146fc565b6139456137498461247e565b938382821661396e575b5050613862818516918261389f578316928361388a576106fd8561247e565b6139789186614bae565b388361394f565b5061398984612c90565b613910565b50808216151561390a565b60ff600080516020614df98339815191525460401c16156139b657565b604051631afcd79f60e31b8152600490fd5b6139d0613999565b6139d8613999565b600080516020614d99833981519152805460ff19169055565b91906139fb613999565b613a03613999565b82516001600160401b038111610a2a57600080516020614cf983398151915290613a3681613a31845461249b565b61484a565b602080601f8311600114613a7f57509080613a6d92610acb9697600092613a74575b50508160011b916000199060031b1c19161790565b9055614948565b015190503880613a58565b90601f19831696613abf600080516020614cf98339815191526000527f37c58c799b6609234b945e882912ee9ad34948a1dfaa20a97485e1a7752bbf8190565b926000905b898210613b0557505090839291600194610acb989910613aec575b505050811b019055614948565b015160001960f88460031b161c19169055388080613adf565b80600185968294968601518155019501930190613ac4565b610acb90613b29613999565b61245b613999565b610acb90613b3d613999565b612231613999565b613b4d613999565b610acb613999565b805490600160401b821015610a2a5781613b77916001613b8e940181556126cd565b819391549060031b91821b91600019901b19161790565b9055565b613b9d6002546126fb565b9081600255613bad6003546126fb565b60035560009182526020600681526040918060018486200155600254845242838520558352600492838252613be783822060025490613b55565b600254835190613bf682610a66565b8282526001600160a01b0387811691908215613d3a57613c16828a6137d7565b16613d2357873b613c2c575b5050505050505050565b93613c5892849288999a96889996849951809781958294630a85bd0160e11b9b8c855233908501613f93565b03925af1909181613cf4575b50613ca857505050613c74613fef565b80519182613ca55750509051633250574960e11b81526001600160a01b039093169183019182525081906020010390fd5b01fd5b9195949392506001600160e01b031990911603613ccf575050503880808080808080613c22565b51633250574960e11b81526001600160a01b0390921690820190815281906020010390fd5b613d15919250853d8711613d1c575b613d0d8183610a9d565b810190613f7e565b9038613c64565b503d613d03565b85516339e3563760e11b8152808801859052602490fd5b8651633250574960e11b8152808901869052602490fd5b600080516020614d39833981519152546001600160a01b03163303613d7257565b604051633be6402f60e11b8152336004820152602490fd5b600080516020614d19833981519152546001600160a01b03163303613dab57565b60405163118cdaa760e01b8152336004820152602490fd5b8054908115613ded5760001991820191613ddd83836126cd565b909182549160031b1b1916905555565b634e487b7160e01b600052603160045260246000fd5b9060005b825480821015613e6a5782613e1c83866126cd565b919054600392831b1c14613e34575050600101613e07565b600019820194935090841161233f57613b77613e6391613e57610acb96866126cd565b9054911b1c92846126cd565b9055613dc3565b604051631f29fae560e11b815260048101849052602490fd5b90816020910312610379575190565b600080516020614e198339815191528054906000906000815582613eb557505050565b6001906001600160ff1b038416840361233f57600052600080516020614cd98339815191529260011b8301925b838110613eef5750505050565b808360029255838382015501613ee2565b600080516020614e19833981519152805490600160401b821015610a2a57600182018082558210156124f8577ff1e5396925f4e3be42e606cef4f4a04fbc4763ed1a889007fda71a95da9ca9ac9160209160005260011b9283600080516020614cd98339815191520160ff82511660ff198254161790550151910155565b9081602091031261037957516104ba81610367565b6104ba939260809260018060a01b031682526000602083015260408201528160608201520190610484565b6001600160a01b0391821681529116602082015260408101919091526080606082018190526104ba92910190610484565b3d1561401a573d9061400082610acd565b9161400e6040519384610a9d565b82523d6000602084013e565b606090565b91929092833b614030575b50505050565b614055916020916040519384928392630a85bd0160e11b978885523360048601613fbe565b038160006001600160a01b0388165af1600091816140e9575b506140ad578261407c613fef565b80519190826140a657604051633250574960e11b81526001600160a01b0383166004820152602490fd5b9050602001fd5b6001600160e01b031916036140c657503880808061402a565b604051633250574960e11b81526001600160a01b03919091166004820152602490fd5b61410391925060203d602011613d1c57613d0d8183610a9d565b903861406e565b60405190606082018281106001600160401b03821117610a2a57604052602a8252604082602036910137565b60405190608082018281106001600160401b03821117610a2a57604052604282526060366020840137565b9061416b82610acd565b6141786040519182610a9d565b82815280926126c3601f1991610acd565b806000917a184f03e93ff9f4daa797ed6e38ed64bf6a1f010000000000000000808210156142bf575b506d04ee2d6d415b85acef8100000000808310156142b0575b50662386f26fc10000808310156142a1575b506305f5e10080831015614292575b5061271080831015614283575b506064821015614273575b600a80921015614269575b60019081602161422160018701614161565b95860101905b614233575b5050505090565b600019019083906f181899199a1a9b1b9c1cb0b131b232b360811b8282061a83530491821561426457919082614227565b61422c565b916001019161420f565b9190606460029104910191614204565b600491939204910191386141f9565b600891939204910191386141ec565b601091939204910191386141dd565b602091939204910191386141cb565b6040935081049150386141b2565b6001600160a01b0316806142df61410a565b9160306142eb846124eb565b5360786142f78461436f565b5360295b6001811161432d575061430c575090565b60405163e22e27eb60e01b8152600481019190915260146024820152604490fd5b90600f81169060108210156124f85761436a916f181899199a1a9b1b9c1cb0b131b232b360811b901a614360848761437f565b5360041c916128bb565b6142fb565b8051600110156124f85760210190565b9081518110156124f8570160200190565b80614399614136565b9160306143a5846124eb565b5360786143b18461436f565b5360415b600181116143e757506143c6575090565b60405163e22e27eb60e01b8152600481019190915260206024820152604490fd5b90600f81169060108210156124f85761441a916f181899199a1a9b1b9c1cb0b131b232b360811b901a614360848761437f565b6143b5565b9460016144c5610acb9660246004976144d196979b9a6144ad6040519d8e9a8b936144566020958287809451948593019101610461565b8c0190602d60f81b9182868201526144778251809388602185019101610461565b019060218201526144918251809386602285019101610461565b0191600160fd1b60228401528351938491602385019101610461565b016144be60238201601d60f91b9052565b0190612cb5565b601d60f91b81526144be565b632055544360e01b815203601b19810185520183610a9d565b6104ba906201518080820462023ab190600460038362264965840160021b058094020105900361458862164b09622649668301610fa00205916004836105b50205900361458161098f966226498494614572898786016050020598600b8a05930696610e10956050878a069b614567600288600c02830301614b3e565b9d0205900301614b3e565b96603019016064020101614189565b9204614b3e565b916145a0603c614599818704614b3e565b9506614b3e565b9461441f565b60405190606082018281106001600160401b03821117610a2a57604052604082527f6768696a6b6c6d6e6f707172737475767778797a303132333435363738392b2f6040837f4142434445464748494a4b4c4d4e4f505152535455565758595a61626364656660208201520152565b8051156146f3576146246145a6565b61464861464361463e6146378551612895565b6003900490565b6128a3565b614161565b91602083019181825183016020810191825193600084525b8282106146a1575050505251600390066001811461468e57600214614683575090565b603d90600019015390565b50603d9081600019820153600119015390565b9091956004906003809401938451600190603f9082828260121c16880101518553828282600c1c16880101518386015382828260061c1688010151600286015316850101519082015301959190614660565b506104ba611d6e565b60ff600080516020614d99833981519152541661471557565b60405163d93c066560e01b8152600490fd5b93916147338486613b92565b60028054600090815260066020526040808220600301949094558154815292832060050180546001600160a01b0319166001600160a01b0384161790559083600461478984546000526006602052604060002090565b01556147aa6147a2856000526005602052604060002090565b835490613b55565b6001600160a01b03948516941684036148215781925b8154956040519687526020870152604086015282101561480d5750606083015260808201527f8024bbef764ec49e6fa78cc6ae7e18f1b502b88282056304972cd3f956456a0e9060a090a1565b634e487b7160e01b81526021600452602490fd5b6001926147c0565b61376b90600052600080516020614dd9833981519152602052604060002090565b601f8111614856575050565b600090600080516020614cf98339815191526000527f37c58c799b6609234b945e882912ee9ad34948a1dfaa20a97485e1a7752bbf81906020601f850160051c830194106148bf575b601f0160051c01915b8281106148b457505050565b8181556001016148a8565b909250829061489f565b601f81116148d5575050565b600090600080516020614e398339815191526000527ff4bad0a69248f59680a4f2b3000328cec71a413447c96781cfe5996daa8c456e906020601f850160051c8301941061493e575b601f0160051c01915b82811061493357505050565b818155600101614927565b909250829061491e565b9081516001600160401b038111610a2a57600080516020614e398339815191529061497c81614977845461249b565b6148c9565b602080601f83116001146149af57508190613b8e939495600092613a745750508160011b916000199060031b1c19161790565b90601f198316956149ef600080516020614e398339815191526000527ff4bad0a69248f59680a4f2b3000328cec71a413447c96781cfe5996daa8c456e90565b926000905b888210614a2c57505083600195969710614a13575b505050811b019055565b015160001960f88460031b161c19169055388080614a09565b806001859682949686015181550195019301906149f4565b90813b15614aca57600080516020614d5983398151915280546001600160a01b0319166001600160a01b0384169081179091557fbc7cd75a20ee27fd9adebab32041f755214dbc6bffa90cc0225b39da2e5c2d3b600080a2805115614aaf57614aac91614b90565b50565b505034614ab857565b60405163b398979f60e01b8152600490fd5b604051634c9c8ce360e01b81526001600160a01b0383166004820152602490fd5b916040610acb929493614b0f8160808101976020809160ff81511684520151910152565b01906020809160ff81511684520151910152565b604051614b38816121be60208201948561079e565b51902090565b600a811015614b8757614b5090614189565b6104ba60216040518093600360fc1b6020830152614b778151809260208686019101610461565b8101036001810184520182610a9d565b6104ba90614189565b6000806104ba93602081519101845af4614ba8613fef565b91614c75565b6001600160a01b03908282168015159081614c19575b5015614bd05750505050565b16614bee57604051637e27328960e01b815260048101839052602490fd5b60405163177e802f60e01b81526001600160a01b039190911660048201526024810191909152604490fd5b828416811491508115614c5c575b8115614c35575b5038614bc4565b905084600052600080516020614dd983398151915260205282604060002054161438614c2e565b905060ff614c6d8561074685612a2e565b541690614c27565b90614c9c5750805115614c8a57805190602001fd5b604051630a12f52160e11b8152600490fd5b81511580614ccf575b614cad575090565b604051639996b31560e01b81526001600160a01b039091166004820152602490fd5b50803b15614ca556fef1e5396925f4e3be42e606cef4f4a04fbc4763ed1a889007fda71a95da9ca9ab80bb2b638cc20bc4d0a60d66940f3ab4a00c1d7b313497ca82fb0b4ab00793009016d09d72d40fdae2fd8ceac6b6234c7706214fd39c1cd1e609a0528c1993005cd57faee1ae981cd745eae5ad3eec0756fa0e8bf3b01e927fcf2f75e6a9ee00360894a13ba1a3210667c828492db98dca3e2076cc3735a920a3ca505d382bbc951b2c2088ac6c5bfb26f1130a7fc7c44e816d0dbc6811fe7d7f0d6b86dcd000cd5ed15c6e187e77e9aee88184c21f4f2182ab5827cb3b7e07fbedcd63f0330080bb2b638cc20bc4d0a60d66940f3ab4a00c1d7b313497ca82fb0b4ab007930280bb2b638cc20bc4d0a60d66940f3ab4a00c1d7b313497ca82fb0b4ab0079304f0c57e16840df040f15088dc2f81fe391c3923bec73e23a9662efc9c229c6a00951b2c2088ac6c5bfb26f1130a7fc7c44e816d0dbc6811fe7d7f0d6b86dcd00180bb2b638cc20bc4d0a60d66940f3ab4a00c1d7b313497ca82fb0b4ab0079301a2646970667358221220e3925197c07db4b2d412eae21d7af01257b4466da6280cd2a0de2bc68198e6f064736f6c63430008190033",
    "linkReferences": {},
    "deployedLinkReferences": {},
    "deployedAddress": "0x06ce572090f139cebdaa44051c9d2ed863fca9e3",
    "implementationAddress": "0x38A7D60150DfB8AF45008fE1d4096249f98Cb550",
    "deployBlockNumber": 4476035
}